{
  "contractName": "Transaction",
  "abi": [
    {
      "inputs": [
        {
          "internalType": "string",
          "name": "cate",
          "type": "string"
        },
        {
          "internalType": "string",
          "name": "name",
          "type": "string"
        },
        {
          "internalType": "string",
          "name": "ipfs_hash",
          "type": "string"
        },
        {
          "internalType": "string",
          "name": "registrant",
          "type": "string"
        },
        {
          "internalType": "string",
          "name": "responsible_manager",
          "type": "string"
        },
        {
          "internalType": "string",
          "name": "file_type",
          "type": "string"
        },
        {
          "internalType": "string",
          "name": "file_description",
          "type": "string"
        }
      ],
      "name": "sendTrans",
      "outputs": [],
      "stateMutability": "payable",
      "type": "function",
      "payable": true
    },
    {
      "inputs": [],
      "name": "getAllTransactions",
      "outputs": [
        {
          "components": [
            {
              "internalType": "string",
              "name": "ttype",
              "type": "string"
            },
            {
              "internalType": "string",
              "name": "name",
              "type": "string"
            },
            {
              "internalType": "uint256",
              "name": "timestamp",
              "type": "uint256"
            },
            {
              "internalType": "string",
              "name": "ipfs_hash",
              "type": "string"
            },
            {
              "internalType": "string",
              "name": "registrant",
              "type": "string"
            },
            {
              "internalType": "string",
              "name": "responsible_manager",
              "type": "string"
            },
            {
              "internalType": "string",
              "name": "file_type",
              "type": "string"
            },
            {
              "internalType": "string",
              "name": "file_description",
              "type": "string"
            }
          ],
          "internalType": "struct Transaction.transaction[]",
          "name": "",
          "type": "tuple[]"
        }
      ],
      "stateMutability": "view",
      "type": "function",
      "constant": true
    },
    {
      "inputs": [
        {
          "internalType": "string",
          "name": "cate",
          "type": "string"
        }
      ],
      "name": "getcateTransactions",
      "outputs": [
        {
          "components": [
            {
              "internalType": "string",
              "name": "ttype",
              "type": "string"
            },
            {
              "internalType": "string",
              "name": "name",
              "type": "string"
            },
            {
              "internalType": "uint256",
              "name": "timestamp",
              "type": "uint256"
            },
            {
              "internalType": "string",
              "name": "ipfs_hash",
              "type": "string"
            },
            {
              "internalType": "string",
              "name": "registrant",
              "type": "string"
            },
            {
              "internalType": "string",
              "name": "responsible_manager",
              "type": "string"
            },
            {
              "internalType": "string",
              "name": "file_type",
              "type": "string"
            },
            {
              "internalType": "string",
              "name": "file_description",
              "type": "string"
            }
          ],
          "internalType": "struct Transaction.transaction[]",
          "name": "",
          "type": "tuple[]"
        }
      ],
      "stateMutability": "view",
      "type": "function",
      "constant": true
    },
    {
      "inputs": [],
      "name": "cntTransactions",
      "outputs": [
        {
          "internalType": "uint16",
          "name": "",
          "type": "uint16"
        }
      ],
      "stateMutability": "view",
      "type": "function",
      "constant": true
    }
  ],
  "bytecode": "0x608060405234801561001057600080fd5b50611593806100206000396000f3fe60806040526004361061003f5760003560e01c806327506f531461004457806388ddcb091461006f578063998e19aa146100ac578063daec9ea3146100d7575b600080fd5b34801561005057600080fd5b506100596100f3565b60405161006691906110b7565b60405180910390f35b34801561007b57600080fd5b5061009660048036038101906100919190611222565b610598565b6040516100a391906110b7565b60405180910390f35b3480156100b857600080fd5b506100c1610a1e565b6040516100ce9190611288565b60405180910390f35b6100f160048036038101906100ec91906112a3565b610a73565b005b6060600260003373ffffffffffffffffffffffffffffffffffffffff1673ffffffffffffffffffffffffffffffffffffffff168152602001908152602001600020805480602002602001604051908101604052809291908181526020016000905b8282101561058f57838290600052602060002090600802016040518061010001604052908160008201805461018890611438565b80601f01602080910402602001604051908101604052809291908181526020018280546101b490611438565b80156102015780601f106101d657610100808354040283529160200191610201565b820191906000526020600020905b8154815290600101906020018083116101e457829003601f168201915b5050505050815260200160018201805461021a90611438565b80601f016020809104026020016040519081016040528092919081815260200182805461024690611438565b80156102935780601f1061026857610100808354040283529160200191610293565b820191906000526020600020905b81548152906001019060200180831161027657829003601f168201915b50505050508152602001600282015481526020016003820180546102b690611438565b80601f01602080910402602001604051908101604052809291908181526020018280546102e290611438565b801561032f5780601f106103045761010080835404028352916020019161032f565b820191906000526020600020905b81548152906001019060200180831161031257829003601f168201915b5050505050815260200160048201805461034890611438565b80601f016020809104026020016040519081016040528092919081815260200182805461037490611438565b80156103c15780601f10610396576101008083540402835291602001916103c1565b820191906000526020600020905b8154815290600101906020018083116103a457829003601f168201915b505050505081526020016005820180546103da90611438565b80601f016020809104026020016040519081016040528092919081815260200182805461040690611438565b80156104535780601f1061042857610100808354040283529160200191610453565b820191906000526020600020905b81548152906001019060200180831161043657829003601f168201915b5050505050815260200160068201805461046c90611438565b80601f016020809104026020016040519081016040528092919081815260200182805461049890611438565b80156104e55780601f106104ba576101008083540402835291602001916104e5565b820191906000526020600020905b8154815290600101906020018083116104c857829003601f168201915b505050505081526020016007820180546104fe90611438565b80601f016020809104026020016040519081016040528092919081815260200182805461052a90611438565b80156105775780601f1061054c57610100808354040283529160200191610577565b820191906000526020600020905b81548152906001019060200180831161055a57829003601f168201915b50505050508152505081526020019060010190610154565b50505050905090565b60606000826040516105aa91906114a5565b9081526020016040518091039020805480602002602001604051908101604052809291908181526020016000905b82821015610a1357838290600052602060002090600802016040518061010001604052908160008201805461060c90611438565b80601f016020809104026020016040519081016040528092919081815260200182805461063890611438565b80156106855780601f1061065a57610100808354040283529160200191610685565b820191906000526020600020905b81548152906001019060200180831161066857829003601f168201915b5050505050815260200160018201805461069e90611438565b80601f01602080910402602001604051908101604052809291908181526020018280546106ca90611438565b80156107175780601f106106ec57610100808354040283529160200191610717565b820191906000526020600020905b8154815290600101906020018083116106fa57829003601f168201915b505050505081526020016002820154815260200160038201805461073a90611438565b80601f016020809104026020016040519081016040528092919081815260200182805461076690611438565b80156107b35780601f10610788576101008083540402835291602001916107b3565b820191906000526020600020905b81548152906001019060200180831161079657829003601f168201915b505050505081526020016004820180546107cc90611438565b80601f01602080910402602001604051908101604052809291908181526020018280546107f890611438565b80156108455780601f1061081a57610100808354040283529160200191610845565b820191906000526020600020905b81548152906001019060200180831161082857829003601f168201915b5050505050815260200160058201805461085e90611438565b80601f016020809104026020016040519081016040528092919081815260200182805461088a90611438565b80156108d75780601f106108ac576101008083540402835291602001916108d7565b820191906000526020600020905b8154815290600101906020018083116108ba57829003601f168201915b505050505081526020016006820180546108f090611438565b80601f016020809104026020016040519081016040528092919081815260200182805461091c90611438565b80156109695780601f1061093e57610100808354040283529160200191610969565b820191906000526020600020905b81548152906001019060200180831161094c57829003601f168201915b5050505050815260200160078201805461098290611438565b80601f01602080910402602001604051908101604052809291908181526020018280546109ae90611438565b80156109fb5780601f106109d0576101008083540402835291602001916109fb565b820191906000526020600020905b8154815290600101906020018083116109de57829003601f168201915b505050505081525050815260200190600101906105d8565b505050509050919050565b6000600360003373ffffffffffffffffffffffffffffffffffffffff1673ffffffffffffffffffffffffffffffffffffffff16815260200190815260200160002060009054906101000a900461ffff16905090565b6000604051806101000160405280898152602001888152602001428152602001878152602001868152602001858152602001848152602001838152509050600360003373ffffffffffffffffffffffffffffffffffffffff1673ffffffffffffffffffffffffffffffffffffffff168152602001908152602001600020600081819054906101000a900461ffff1680929190610b0e906114eb565b91906101000a81548161ffff021916908361ffff16021790555050600260003373ffffffffffffffffffffffffffffffffffffffff1673ffffffffffffffffffffffffffffffffffffffff1681526020019081526020016000208190806001815401808255809150506001900390600052602060002090600802016000909190919091506000820151816000019080519060200190610bae929190610dc6565b506020820151816001019080519060200190610bcb929190610dc6565b50604082015181600201556060820151816003019080519060200190610bf2929190610dc6565b506080820151816004019080519060200190610c0f929190610dc6565b5060a0820151816005019080519060200190610c2c929190610dc6565b5060c0820151816006019080519060200190610c49929190610dc6565b5060e0820151816007019080519060200190610c66929190610dc6565b505050600088604051610c7991906114a5565b90815260200160405180910390208190806001815401808255809150506001900390600052602060002090600802016000909190919091506000820151816000019080519060200190610ccd929190610dc6565b506020820151816001019080519060200190610cea929190610dc6565b50604082015181600201556060820151816003019080519060200190610d11929190610dc6565b506080820151816004019080519060200190610d2e929190610dc6565b5060a0820151816005019080519060200190610d4b929190610dc6565b5060c0820151816006019080519060200190610d68929190610dc6565b5060e0820151816007019080519060200190610d85929190610dc6565b505050600188604051610d9891906114a5565b90815260200160405180910390206000815480929190610db790611515565b91905055505050505050505050565b828054610dd290611438565b90600052602060002090601f016020900481019282610df45760008555610e3b565b82601f10610e0d57805160ff1916838001178555610e3b565b82800160010185558215610e3b579182015b82811115610e3a578251825591602001919060010190610e1f565b5b509050610e489190610e4c565b5090565b5b80821115610e65576000816000905550600101610e4d565b5090565b600081519050919050565b600082825260208201905092915050565b6000819050602082019050919050565b600081519050919050565b600082825260208201905092915050565b60005b83811015610ecf578082015181840152602081019050610eb4565b83811115610ede576000848401525b50505050565b6000601f19601f8301169050919050565b6000610f0082610e95565b610f0a8185610ea0565b9350610f1a818560208601610eb1565b610f2381610ee4565b840191505092915050565b6000819050919050565b610f4181610f2e565b82525050565b6000610100830160008301518482036000860152610f658282610ef5565b91505060208301518482036020860152610f7f8282610ef5565b9150506040830151610f946040860182610f38565b5060608301518482036060860152610fac8282610ef5565b91505060808301518482036080860152610fc68282610ef5565b91505060a083015184820360a0860152610fe08282610ef5565b91505060c083015184820360c0860152610ffa8282610ef5565b91505060e083015184820360e08601526110148282610ef5565b9150508091505092915050565b600061102d8383610f47565b905092915050565b6000602082019050919050565b600061104d82610e69565b6110578185610e74565b93508360208202850161106985610e85565b8060005b858110156110a557848403895281516110868582611021565b945061109183611035565b925060208a0199505060018101905061106d565b50829750879550505050505092915050565b600060208201905081810360008301526110d18184611042565b905092915050565b6000604051905090565b600080fd5b600080fd5b600080fd5b600080fd5b7f4e487b7100000000000000000000000000000000000000000000000000000000600052604160045260246000fd5b61112f82610ee4565b810181811067ffffffffffffffff8211171561114e5761114d6110f7565b5b80604052505050565b60006111616110d9565b905061116d8282611126565b919050565b600067ffffffffffffffff82111561118d5761118c6110f7565b5b61119682610ee4565b9050602081019050919050565b82818337600083830152505050565b60006111c56111c084611172565b611157565b9050828152602081018484840111156111e1576111e06110f2565b5b6111ec8482856111a3565b509392505050565b600082601f830112611209576112086110ed565b5b81356112198482602086016111b2565b91505092915050565b600060208284031215611238576112376110e3565b5b600082013567ffffffffffffffff811115611256576112556110e8565b5b611262848285016111f4565b91505092915050565b600061ffff82169050919050565b6112828161126b565b82525050565b600060208201905061129d6000830184611279565b92915050565b600080600080600080600060e0888a0312156112c2576112c16110e3565b5b600088013567ffffffffffffffff8111156112e0576112df6110e8565b5b6112ec8a828b016111f4565b975050602088013567ffffffffffffffff81111561130d5761130c6110e8565b5b6113198a828b016111f4565b965050604088013567ffffffffffffffff81111561133a576113396110e8565b5b6113468a828b016111f4565b955050606088013567ffffffffffffffff811115611367576113666110e8565b5b6113738a828b016111f4565b945050608088013567ffffffffffffffff811115611394576113936110e8565b5b6113a08a828b016111f4565b93505060a088013567ffffffffffffffff8111156113c1576113c06110e8565b5b6113cd8a828b016111f4565b92505060c088013567ffffffffffffffff8111156113ee576113ed6110e8565b5b6113fa8a828b016111f4565b91505092959891949750929550565b7f4e487b7100000000000000000000000000000000000000000000000000000000600052602260045260246000fd5b6000600282049050600182168061145057607f821691505b60208210810361146357611462611409565b5b50919050565b600081905092915050565b600061147f82610e95565b6114898185611469565b9350611499818560208601610eb1565b80840191505092915050565b60006114b18284611474565b915081905092915050565b7f4e487b7100000000000000000000000000000000000000000000000000000000600052601160045260246000fd5b60006114f68261126b565b915061ffff820361150a576115096114bc565b5b600182019050919050565b600061152082610f2e565b91507fffffffffffffffffffffffffffffffffffffffffffffffffffffffffffffffff8203611552576115516114bc565b5b60018201905091905056fea26469706673582212207d7e2f9e3437b78867ebbe4670b4f90ece20978c0dc42376fdb6baca006a855e64736f6c634300080e0033",
  "immutableReferences": {},
  "source": "// SPDX-License-Identifier: MIT\r\npragma solidity ^0.8.14;\r\n\r\ncontract Transaction {\r\n    struct transaction {\r\n        string ttype;\r\n        string name;\r\n        uint256 timestamp;\r\n        string ipfs_hash;\r\n        string registrant;\r\n        string responsible_manager;\r\n        string file_type;\r\n        string file_description;\r\n    }\r\n\r\n    // CCTV, video, doc, tert\r\n    mapping (string=>transaction[]) cate_transactions;\r\n    mapping (string=>uint256) cate_cnt;\r\n\r\n    //saves all the transactions of the account\r\n    mapping (address=>transaction[]) allTransactions;\r\n    //count the total number of transaction of the account\r\n    mapping (address=>uint16) transaction_cnt;\r\n\r\n    //send the transaction\r\n    function sendTrans(string memory cate, string memory name, string memory ipfs_hash, string memory registrant, string memory responsible_manager, string memory file_type, string memory file_description) public payable{\r\n        // cate = \" \" + cate;\r\n        //inserts transaction information\r\n        transaction memory newTransaction = transaction(cate, name, block.timestamp, ipfs_hash, registrant, responsible_manager, file_type, file_description);\r\n        //count the number of transactions sent\r\n        transaction_cnt[msg.sender]++;\r\n        //save all the transactions\r\n        allTransactions[msg.sender].push(newTransaction);\r\n        cate_transactions[cate].push(newTransaction);\r\n        cate_cnt[cate]++;\r\n    }\r\n\r\n    //view all the transactions of the user\r\n    function getAllTransactions() view external returns(transaction[] memory){\r\n        return allTransactions[msg.sender];\r\n    }\r\n\r\n    function getcateTransactions(string memory cate) view external returns(transaction[] memory){\r\n        return cate_transactions[cate];\r\n    }\r\n\r\n    function cntTransactions() view external returns(uint16){\r\n        return transaction_cnt[msg.sender];\r\n    }\r\n}",
  "sourcePath": "D:\\BlockchainSafetyManagement\\truffle\\contracts\\Transaction.sol",
  "compiler": {
    "name": "solc",
    "version": "0.8.14+commit.80d49f37.Emscripten.clang"
  },
  "schemaVersion": "3.4.8",
  "updatedAt": "2022-07-08T06:18:37.463Z",
  "networkType": "ethereum",
  "devdoc": {
    "kind": "dev",
    "methods": {},
    "version": 1
  },
  "userdoc": {
    "kind": "user",
    "methods": {},
    "version": 1
  }
}