{
  "contractName": "Transaction",
  "abi": [
    {
      "inputs": [],
      "name": "sendTrans",
      "outputs": [],
      "stateMutability": "payable",
      "type": "function",
      "payable": true
    },
    {
      "inputs": [],
      "name": "getAllTransactions",
      "outputs": [
        {
          "components": [
            {
              "internalType": "string",
              "name": "ttype",
              "type": "string"
            },
            {
              "internalType": "string",
              "name": "name",
              "type": "string"
            },
            {
              "internalType": "uint256",
              "name": "timestamp",
              "type": "uint256"
            },
            {
              "internalType": "string",
              "name": "ipfs_hash",
              "type": "string"
            },
            {
              "internalType": "string",
              "name": "registrant",
              "type": "string"
            },
            {
              "internalType": "string",
              "name": "responsible_manager",
              "type": "string"
            },
            {
              "internalType": "string",
              "name": "file_type",
              "type": "string"
            },
            {
              "internalType": "string",
              "name": "file_description",
              "type": "string"
            }
          ],
          "internalType": "struct Transaction.transaction[]",
          "name": "",
          "type": "tuple[]"
        }
      ],
      "stateMutability": "view",
      "type": "function",
      "constant": true
    },
    {
      "inputs": [],
      "name": "cntTransactions",
      "outputs": [
        {
          "internalType": "uint16",
          "name": "",
          "type": "uint16"
        }
      ],
      "stateMutability": "view",
      "type": "function",
      "constant": true
    }
  ],
  "bytecode": "0x608060405234801561001057600080fd5b50610d37806100206000396000f3fe6080604052600436106100345760003560e01c806327506f53146100395780637e3e942c14610064578063998e19aa1461006e575b600080fd5b34801561004557600080fd5b5061004e610099565b60405161005b9190610bee565b60405180910390f35b61006c61053d565b005b34801561007a57600080fd5b506100836108a8565b6040516100909190610c2d565b60405180910390f35b60606000803373ffffffffffffffffffffffffffffffffffffffff1673ffffffffffffffffffffffffffffffffffffffff168152602001908152602001600020805480602002602001604051908101604052809291908181526020016000905b8282101561053457838290600052602060002090600802016040518061010001604052908160008201805461012d90610c77565b80601f016020809104026020016040519081016040528092919081815260200182805461015990610c77565b80156101a65780601f1061017b576101008083540402835291602001916101a6565b820191906000526020600020905b81548152906001019060200180831161018957829003601f168201915b505050505081526020016001820180546101bf90610c77565b80601f01602080910402602001604051908101604052809291908181526020018280546101eb90610c77565b80156102385780601f1061020d57610100808354040283529160200191610238565b820191906000526020600020905b81548152906001019060200180831161021b57829003601f168201915b505050505081526020016002820154815260200160038201805461025b90610c77565b80601f016020809104026020016040519081016040528092919081815260200182805461028790610c77565b80156102d45780601f106102a9576101008083540402835291602001916102d4565b820191906000526020600020905b8154815290600101906020018083116102b757829003601f168201915b505050505081526020016004820180546102ed90610c77565b80601f016020809104026020016040519081016040528092919081815260200182805461031990610c77565b80156103665780601f1061033b57610100808354040283529160200191610366565b820191906000526020600020905b81548152906001019060200180831161034957829003601f168201915b5050505050815260200160058201805461037f90610c77565b80601f01602080910402602001604051908101604052809291908181526020018280546103ab90610c77565b80156103f85780601f106103cd576101008083540402835291602001916103f8565b820191906000526020600020905b8154815290600101906020018083116103db57829003601f168201915b5050505050815260200160068201805461041190610c77565b80601f016020809104026020016040519081016040528092919081815260200182805461043d90610c77565b801561048a5780601f1061045f5761010080835404028352916020019161048a565b820191906000526020600020905b81548152906001019060200180831161046d57829003601f168201915b505050505081526020016007820180546104a390610c77565b80601f01602080910402602001604051908101604052809291908181526020018280546104cf90610c77565b801561051c5780601f106104f15761010080835404028352916020019161051c565b820191906000526020600020905b8154815290600101906020018083116104ff57829003601f168201915b505050505081525050815260200190600101906100f9565b50505050905090565b60006040518061010001604052806040518060400160405280600481526020017f636374760000000000000000000000000000000000000000000000000000000081525081526020016040518060400160405280600c81526020017f4b696d596f756e67486f6f6e000000000000000000000000000000000000000081525081526020014281526020016040518060400160405280600881526020017f313233346173646600000000000000000000000000000000000000000000000081525081526020016040518060400160405280600b81526020017f4b696d4a756e674879756e00000000000000000000000000000000000000000081525081526020016040518060400160405280600a81526020017f4a6f4879756e67576f6f0000000000000000000000000000000000000000000081525081526020016040518060400160405280600481526020017f2e6176690000000000000000000000000000000000000000000000000000000081525081526020016040518060400160405280601e81526020017f69742069732061206363747620766964656f20696e204d434e4c204c616200008152508152509050600160003373ffffffffffffffffffffffffffffffffffffffff1673ffffffffffffffffffffffffffffffffffffffff168152602001908152602001600020600081819054906101000a900461ffff168092919061074b90610cd7565b91906101000a81548161ffff021916908361ffff160217905550506000803373ffffffffffffffffffffffffffffffffffffffff1673ffffffffffffffffffffffffffffffffffffffff16815260200190815260200160002081908060018154018082558091505060019003906000526020600020906008020160009091909190915060008201518160000190805190602001906107ea9291906108fd565b5060208201518160010190805190602001906108079291906108fd565b5060408201518160020155606082015181600301908051906020019061082e9291906108fd565b50608082015181600401908051906020019061084b9291906108fd565b5060a08201518160050190805190602001906108689291906108fd565b5060c08201518160060190805190602001906108859291906108fd565b5060e08201518160070190805190602001906108a29291906108fd565b50505050565b6000600160003373ffffffffffffffffffffffffffffffffffffffff1673ffffffffffffffffffffffffffffffffffffffff16815260200190815260200160002060009054906101000a900461ffff16905090565b82805461090990610c77565b90600052602060002090601f01602090048101928261092b5760008555610972565b82601f1061094457805160ff1916838001178555610972565b82800160010185558215610972579182015b82811115610971578251825591602001919060010190610956565b5b50905061097f9190610983565b5090565b5b8082111561099c576000816000905550600101610984565b5090565b600081519050919050565b600082825260208201905092915050565b6000819050602082019050919050565b600081519050919050565b600082825260208201905092915050565b60005b83811015610a065780820151818401526020810190506109eb565b83811115610a15576000848401525b50505050565b6000601f19601f8301169050919050565b6000610a37826109cc565b610a4181856109d7565b9350610a518185602086016109e8565b610a5a81610a1b565b840191505092915050565b6000819050919050565b610a7881610a65565b82525050565b6000610100830160008301518482036000860152610a9c8282610a2c565b91505060208301518482036020860152610ab68282610a2c565b9150506040830151610acb6040860182610a6f565b5060608301518482036060860152610ae38282610a2c565b91505060808301518482036080860152610afd8282610a2c565b91505060a083015184820360a0860152610b178282610a2c565b91505060c083015184820360c0860152610b318282610a2c565b91505060e083015184820360e0860152610b4b8282610a2c565b9150508091505092915050565b6000610b648383610a7e565b905092915050565b6000602082019050919050565b6000610b84826109a0565b610b8e81856109ab565b935083602082028501610ba0856109bc565b8060005b85811015610bdc5784840389528151610bbd8582610b58565b9450610bc883610b6c565b925060208a01995050600181019050610ba4565b50829750879550505050505092915050565b60006020820190508181036000830152610c088184610b79565b905092915050565b600061ffff82169050919050565b610c2781610c10565b82525050565b6000602082019050610c426000830184610c1e565b92915050565b7f4e487b7100000000000000000000000000000000000000000000000000000000600052602260045260246000fd5b60006002820490506001821680610c8f57607f821691505b602082108103610ca257610ca1610c48565b5b50919050565b7f4e487b7100000000000000000000000000000000000000000000000000000000600052601160045260246000fd5b6000610ce282610c10565b915061ffff8203610cf657610cf5610ca8565b5b60018201905091905056fea26469706673582212207f8a7171bf904596d2881bcfd1478be8911cdb8c3f4190ba3663ba623b3f53ec64736f6c634300080e0033",
  "immutableReferences": {},
  "source": "// SPDX-License-Identifier: MIT\r\npragma solidity ^0.8.14;\r\n\r\ncontract Transaction {\r\n    struct transaction {\r\n        string ttype;\r\n        string name;\r\n        uint256 timestamp;\r\n        string ipfs_hash;\r\n        string registrant;\r\n        string responsible_manager;\r\n        string file_type;\r\n        string file_description;\r\n    }\r\n\r\n    //saves all the transactions of the account\r\n    mapping (address=>transaction[]) allTransactions;\r\n    //count the total number of transaction of the account\r\n    mapping (address=>uint16) transaction_cnt;\r\n\r\n    //send the transaction\r\n    function sendTrans() payable external {\r\n        //inserts transaction information\r\n        transaction memory newTransaction = transaction(\"cctv\", \"KimYoungHoon\", block.timestamp, \"1234asdf\", \"KimJungHyun\", \"JoHyungWoo\", \".avi\", \"it is a cctv video in MCNL Lab\");\r\n        //count the number of transactions sent\r\n        transaction_cnt[msg.sender]++;\r\n        //save all the transactions\r\n        allTransactions[msg.sender].push(newTransaction);\r\n    }\r\n\r\n    //view all the transactions of the user\r\n    function getAllTransactions() view external returns(transaction[] memory){\r\n        return allTransactions[msg.sender];\r\n    }\r\n\r\n    function cntTransactions() view external returns(uint16){\r\n        return transaction_cnt[msg.sender];\r\n    }\r\n}",
  "sourcePath": "D:\\\\REACT\\truffle\\contracts\\Transaction.sol",
  "compiler": {
    "name": "solc",
    "version": "0.8.14+commit.80d49f37.Emscripten.clang"
  },
  "schemaVersion": "3.4.8",
  "updatedAt": "2022-07-07T02:49:34.110Z",
  "networkType": "ethereum",
  "devdoc": {
    "kind": "dev",
    "methods": {},
    "version": 1
  },
  "userdoc": {
    "kind": "user",
    "methods": {},
    "version": 1
  }
}